S01D00004353313230422D437573746F6D2D50726F6A6563742E73726563F0
S11300008AC00000A5C00000A3C00000A1C0000079
S11300109FC000009DC000009BC0000099C000006C
S113002097C0000095C0000093C0000091C000007C
S11300308FC0000024C100008BC0000089C00000F4
S113004087C0000085C0000083C0000081C000009C
S11300507FC000007DC000007BC0000079C00000AC
S113006077C0000075C0000073C0000071C00000BC
S11300706FC000006DC000006BC0000069C00000CC
S113008067C0000065C0000063C00000E2017702A1
S11300907702770277027702770277027702770294
S11300A07702770277027702770277027702770284
S11300B07702770277027702770277027702770274
S11300C07702770277027702770277027702770264
S11300D077026E027702770277027702770277025D
S11300E0650277027702770277027702E701F0016F
S11300F0F90102020B0214021D0226022F02380229
S11301007702770277027702770277027702410259
S11301104A0253025C0211241FBECFEFD0E4DEBFBB
S1130120CDBF11E0A0E0B1E0ECEDF6E000E00BBFE4
S113013002C007900D92A630B107D9F721E0A6E0DE
S1130140B1E001C01D92A332B207E1F7DFD1C4C20E
S113015057CF181619065CF0089500002150310994
S1130160E1F74F5F5F4F8417950719F4089540E056
S113017050E027E033E0F1CF10988BB9119A0000DA
S1130180119882E090E0E5CF0895813118F4815808
S1130190F3CF08958155F0CF089584E690E0D9DF38
S11301A088E3EADF86E0E8DF8FE0E6DF81E0E4DF92
S11301B08AE090E0CECF0895109A8BB9119A00008E
S11301C0119881E090E0C5CF089580911C018823A7
S11301D0F1F080910001813178F40000D6DF809144
S11301E01D018111E9DF809100018F5F809300017F
S11301F010921C0100000BC081E080930001C5DF58
S113020080911D018111D8DF10921C01000081E052
S113021090E00895609301017093020180930301BB
S11302209093040160931E0170931F018093200139
S11302309093210108958BE0809381008DE790E0F5
S1130240909389008093880082E080936F001092DD
S11302508500109284008091010190910201A09187
S11302600301B091040180931E0190931F01A09398
S11302702001B09321018FB780688FBF08951F922A
S11302800F920FB60F9211248F939F93AF93BF9346
S113029080911E0190911F01A0912001B091210134
S11302A00197A109B10980931E0190931F01A093A6
S11302B02001B0932101892B8A2B8B2B99F481E0A7
S11302C0809322018091010190910201A091030188
S11302D0B091040180931E0190931F01A09320010B
S11302E0B0932101BF91AF919F918F910F900FBE59
S11302F00F901F9018958FEE88B90000309B29C08D
S1130300319B29C0329B29C0339B29C08FED88B90A
S11303100000309B26C0319B26C0329B26C0339BF5
S113032026C08FEB88B90000309B23C0319B23C0CB
S1130330329B23C0339B23C08FE788B90000309BD6
S113034020C0319B20C0329B20C0339B20C080E062
S1130350089581E3089584E3089587E308958AE284
S1130360089582E3089585E3089588E3089580E37A
S1130370089583E3089586E3089589E3089583E265
S1130380089581E4089582E4089583E4089584E45B
S11303900895CF93DF93EC01AEDFC130D10519F09E
S11303A0229721F0AAC0811104C0ACC0882309F4AB
S11303B0A7C090E08534910508F099C0FC01EA5B80
S11303C0FF4F81C110921C01C2E0D0E09BC080E3CA
S11303D080931D0181E080931C01C2E0D0E092C0B3
S11303E081E380931D0181E080931C01C2E0D0E091
S11303F089C082E380931D0181E080931C01C2E0E7
S1130400D0E080C083E380931D0181E080931C01D0
S1130410C2E0D0E077C084E380931D0181E0809343
S11304201C01C2E0D0E06EC085E380931D0181E031
S113043080931C01C2E0D0E065C086E380931D0177
S113044081E080931C01C2E0D0E05CC087E380932C
S11304501D0181E080931C01C2E0D0E053C088E319
S113046080931D0181E080931C01C2E0D0E04AC06A
S113047089E380931D0181E080931C01C2E0D0E0F8
S113048041C081E480931D0181E080931C01C2E09E
S1130490D0E038C082E480931D0181E080931C0188
S11304A0C2E0D0E02FC083E480931D0181E08093FB
S11304B01C01C2E0D0E026C084E480931D0181E0E9
S11304C080931C01C2E0D0E01DC08AE280931D012C
S11304D081E080931C01C2E0D0E014C083E28093E9
S11304E01D0181E080931C01C2E0D0E00BC080E2DA
S11304F080931D01C2E0D0E005C0C1E0D0E002C09D
S1130500C1E0D0E0CE01DF91CF910895CF93DF9386
S113051000D000D0CDB7DEB78FEF81B912B890EF1D
S113052097B99FE098B98AB91BB80F2EF4EFEF2E54
S1130530F02DFF24F39400E010E052E340E030E0BB
S113054020E004C0E62EF72E082F192F652F742FF4
S1130550832F922F2E2D3F2D402F512F92D05E2D81
S11305604F2D302F212F611571058105910551F70C
S113057062E370E080E090E02E2D3F2D402F512F5C
S113058080D019012A0164EF71E080E090E02E2D03
S11305903F2D402F512F75D049015A01E1E1F1E07F
S11305A0FA83E9830F2EF6E0CF2EF1E0DF2EF02D53
S11305B0DC82CB8277247A947082218232824382D5
S11305C05482258236824782508689EC91E0928754
S11305D08187E3DDD6017C92F60181829282A38237
S11305E0B48215968D929D92AD92BC92189785EE29
S11305F090E01A969C938E9319976E2D7F2D802FE1
S1130600912F08DE18DE7E01B5E0EB0EF11CFE0131
S113061031966F01D6010D911D916D01F80145814F
S113062056816781708581819281A381B481481745
S113063059076A077B0779F480810184F285E02DEC
S1130640082E000C990B0995D8018C93F80115829A
S1130650168217821086F80185819681A781B0855C
S11306600196A11DB11D85839683A783B087CE14FF
S1130670DF0481F6809122018823E1F310922201A4
S1130680C6CFA1E21A2EAA1BBB1BFD010DC0AA1FD7
S1130690BB1FEE1FFF1FA217B307E407F50720F0E7
S11306A0A21BB30BE40BF50B661F771F881F991F62
S11306B01A9469F760957095809590959B01AC01AB
S11306C0BD01CF010895EE0FFF1F0024001C0BBED7
S10F06D00790F691E02D0994F894FFCFF8
S10906DC01010000000012
S9030000FC
