:10000000CBC00000E6C00000E4C00000E2C0000079
:10001000E0C00000DEC00000DCC00000DAC000006C
:10002000D8C00000D6C00000D4C00000D2C000007C
:10003000D0C0000097C10000CCC00000CAC00000C2
:10004000C8C00000C6C00000C4C00000C2C000009C
:10005000C0C00000BEC00000BCC00000BAC00000AC
:10006000B8C00000B6C00000B4C00000B2C00000BC
:10007000B0C00000AEC00000ACC00000AAC00000CC
:10008000A8C00000A6C00000A4C000002603B90359
:10009000B903B903B903B903B903B903B903B90380
:1000A000B903B903B903B903B903B903B903B90370
:1000B000B903B903B903B903B903B903B903B90360
:1000C000B903B903B903B903B903B903B903B90350
:1000D000B903B103B903B903B903B903B903B90348
:1000E000A903B903B903B903B903B9032B03340353
:1000F0003D0346034F03580361036A0373037C0304
:10010000B903B903B903B903B903B903B903850343
:100110008E039703A00307634236B79BD8A71A390B
:10012000685618AEBAAB558C1D3CB7CC5763BD6D45
:10013000EDFD753EF6177231BF000000803F0800EC
:100140000000BE922449123EABAAAA2ABECDCCCC56
:100150004C3E00000080BEABAAAAAA3E00000000F0
:10016000BF000000803F0000000000084178D3BBC2
:100170004387D1133D190E3CC3BD4282AD2B3E686F
:10018000EC8276BED98FE1A93E4C80EFFFBE01C460
:10019000FF7F3F000000000011241FBECFEFD0E41E
:1001A000DEBFCDBF11E0A0E0B1E0ECEAF1E100E09C
:1001B0000BBF02C007900D92AE32B107D9F721E014
:1001C000AEE2B1E001C01D92AC35B207E1F7E0D27A
:1001D000EBC716CF181619065CF0089500002150E1
:1001E0003109E1F74F5F5F4F8417950719F40895C0
:1001F00040E050E027E033E0F1CF10988BB9119A3E
:100200000000119882E090E0E5CF089581E0F5CFFD
:100210000895813118F48158F0CF08958155EDCFBC
:10022000089584E690E0D6DF88E3E7DF86E0E5DF47
:100230008FE0E3DF81E0E1DF8AE090E0CBCF08955B
:10024000109A8BB9119A0000119881E090E0C2CF0A
:1002500008950F931F93CF93DF93182FEB01D6DFF1
:10026000812FD7DF8881882351F001E0010F812F92
:10027000D0DF8991E5DF102F88818111F6CFDF91E2
:10028000CF911F910F91089580915401882391F18E
:10029000809100018131B8F40000BBDF80915501ED
:1002A000882369F0CDDF9091530180915501890F2A
:1002B00080935301809100018F5F80930001109221
:1002C0005401000017C089E0809300011092520190
:1002D000A0DF80915501882351F0B2DF8091550154
:1002E00080935301809100018F5F809300011092F1
:1002F0005401000081E090E0089560930101709343
:10030000020180930301909304016093560170935E
:100310005701809358019093590108958BE0809381
:1003200081008DE790E0909389008093880082E0BF
:1003300080936F00109285001092840080910101DB
:1003400090910201A0910301B091040180935601A4
:1003500090935701A0935801B09359018FB78068CB
:100360008FBF08951F920F920FB60F9211248F9393
:100370009F93AF93BF938091560190915701A091A5
:100380005801B09159010197A109B1098093560113
:1003900090935701A0935801B0935901892B8A2B50
:1003A0008B2B99F481E080935A0180910101909107
:1003B0000201A0910301B091040180935601909332
:1003C0005701A0935801B0935901BF91AF919F91EC
:1003D0008F910F900FBE0F901F9018956F927F9284
:1003E0008F929F92AF92BF92CF92DF92EF92FF9245
:1003F0000F931F93CF93DF93EC01812C912C540129
:100400006894B6F80F2EFCE06F2EF02D712C00E0F2
:1004100010E0C501B40136D3562F472F382F292FAE
:10042000C62CD72CE02EF12E02C06B017C01652F6B
:10043000742F832F922FA701960180D65C2D4D2D0E
:100440003E2D2F2D611571058105910571F7CA9417
:10045000CD28CE28CF2881F020E030E040E85FE3CF
:10046000C501B401A2D24B015C0120E030E040E4C0
:1004700051E4FFD288236CF2BE01DD0F880B990B8B
:100480002FD3A501940138D420E030E048EA51E4AC
:1004900069D3F3D2CB01DF91CF911F910F91FF90E0
:1004A000EF90DF90CF90BF90AF909F908F907F9014
:1004B0006F900895CF93DF93CDB7DEB762970FB6F5
:1004C000F894DEBF0FBECDBF8230910571F083304E
:1004D000910539F1019709F041C080B18095847090
:1004E00080934F01811137C039C080B180958470ED
:1004F00080934F0181112FC0A0915301B0E0FD0105
:1005000001900020E9F73197EA1BFB0BE0935101C2
:10051000E11103C0109250011EC081E08093500190
:1005200004C020915001222309F182E1EBE0F1E0C7
:10053000DE01119601900D928A95E1F76BE571E06D
:10054000CE01019626D6BE016F5F7F4F81E081DE2E
:1005500083E090E00BC082E090E008C080915301FE
:1005600090E03CDF80938D0181E090E062960FB6D1
:10057000F894DEBF0FBECDBFDF91CF9108958FEE0F
:1005800088B90000309B29C0319B29C0329B29C00B
:10059000339B29C08FED88B90000309B26C0319B6A
:1005A00026C0329B26C0339B26C08FEB88B9000043
:1005B000309B23C0319B23C0329B23C0339B23C07D
:1005C0008FE788B90000309B20C0319B20C0329B50
:1005D00020C0339B20C080E0089581E3089584E328
:1005E000089587E308958AE2089582E3089585E3F4
:1005F000089588E3089580E3089583E3089586E3EA
:10060000089589E3089583E2089581E4089582E4DA
:10061000089583E4089584E40895CF93DF93EC0173
:10062000AEDFC130D10519F0229721F0A8C08111A9
:1006300004C0AAC0882309F4A5C090E085349105C0
:1006400008F097C0FC01EA5BFF4F9AC51092540175
:10065000C2E0D0E099C080E38093550181E08093AF
:100660005401C2E0D0E090C081E38093550181E065
:1006700080935401C2E0D0E087C082E380935501AB
:1006800081E080935401C2E0D0E07EC083E3809398
:10069000550181E080935401C2E0D0E075C084E34D
:1006A0008093550181E080935401C2E0D0E06CC09A
:1006B00085E38093550181E080935401C2E0D0E04E
:1006C00063C086E38093550181E080935401C2E0CA
:1006D000D0E05AC087E38093550181E080935401B4
:1006E000C2E0D0E051C088E38093550181E080935F
:1006F0005401C2E0D0E048C089E38093550181E015
:1007000080935401C2E0D0E03FC081E48093550162
:1007100081E080935401C2E0D0E036C082E480934F
:10072000550181E080935401C2E0D0E02DC083E404
:100730008093550181E080935401C2E0D0E024C051
:1007400084E48093550181E080935401C2E0D0E0BD
:100750001BC08AE28093550110925401C2E0D0E0A0
:1007600013C083E28093550110925401C2E0D0E09F
:100770000BC080E280935501C2E0D0E005C0C1E02B
:10078000D0E002C0C1E0D0E0CE01DF91CF9108956A
:10079000CF93DF93CDB7DEB767970FB6F894DEBF80
:1007A0000FBECDBF8FEF81B912B890EF97B99FE020
:1007B00098B98AB91BB884B915B80F2EF4EFDF2E9B
:1007C000F02DCC24C394B12CA12C52E340E030E0B6
:1007D00020E004C0D62EC72EB82EA92E652F742F68
:1007E000832F922F2D2D3C2D4B2D5A2DA7D45D2DCF
:1007F0004C2D3B2D2A2D611571058105910551F771
:100800000F2EF4EFEF2EF02DFF24F39400E010E014
:1008100004C0E62EF72E082F192F6D2D7C2D8B2D61
:100820009A2D2E2D3F2D402F512F88D4DE2CCF2CEA
:10083000B02EA12E611571058105910551F762E376
:1008400070E080E090E02E2D3F2D402F512F76D488
:1008500029013A0164EF71E080E090E02E2D3F2DF8
:10086000402F512F6BD459016A0186E0E5E0F1E099
:10087000DE01119601900D928A95E1F7E4E4F1E032
:1008800099249A9490824182528263827482458232
:100890005682678270868DE093E092878187C1DC03
:1008A000E9E3F1E09082A182B282C382D482A58280
:1008B000B682C782D08684E491E092878187EEE297
:1008C000F1E09082A182B282C382D482A582B682F4
:1008D000C782D0868AE592E0928781876E2D7F2D30
:1008E000802F912F0ADD1ADD89E0EDE1F1E0DE01D4
:1008F000179601900D928A95E1F788E0E6E2F1E023
:10090000DE01509601900D928A95E1F7BE01605F7D
:100910007F4FCE0107963DD4BE01695F7F4F81E0D6
:1009200098DC7E0187E0E80EF11CDE0111966D0176
:10093000F601019111916F01D80115964D915D91CC
:100940006D917C91189711968D919D910D90BC9110
:10095000A02D481759076A077B0781F4F8018081A9
:100960000184F285E02D082E000C990B0995D80121
:100970008C93F8011582168217821086F801858102
:100980009681A781B0850196A11DB11D85839683AF
:10099000A783B087CE14DF0459F680915A018823CB
:1009A000E1F310925A01C1CF5058BB27AA270ED0AD
:1009B00069C15AD130F05FD120F031F49F3F11F47A
:1009C0001EF44FC10EF4E095E7FB37C1E92F6BD160
:1009D00080F3BA17620773078407950718F071F45C
:1009E0009EF583C10EF4E0950B2EBA2FA02D0B01BE
:1009F000B90190010C01CA01A0011124FF27591B64
:100A000099F0593F50F4503E68F11A16F040A22F69
:100A1000232F342F4427585FF3CF469537952795DA
:100A2000A795F0405395C9F77EF41F16BA0B620BD9
:100A3000730B840BBAF09150A1F0FF0FBB1F661F20
:100A4000771F881FC2F70EC0BA0F621F731F841F63
:100A500048F4879577956795B795F7959E3F08F089
:100A6000B3CF9395880F08F09927EE0F9795879548
:100A70000895BFD008F481E0089504D06894B111BE
:100A800035C1089518D188F09F5790F0B92F992754
:100A9000B751A0F0D1F0660F771F881F991F1AF089
:100AA000BA95C9F712C0B13081F01FD1B1E00895F5
:100AB0001CC1672F782F8827B85F39F0B93FCCF376
:100AC000869577956795B395D9F73EF4909580957F
:100AD000709561957F4F8F4F9F4F0895E89409C09F
:100AE00097FB3EF490958095709561957F4F8F4F61
:100AF0009F4F9923A9F0F92F96E9BB279395F69577
:100B0000879577956795B795F111F8CFFAF4BB0FF4
:100B100011F460FF1BC06F5F7F4F8F4F9F4F16C058
:100B2000882311F096E911C0772321F09EE8872FE2
:100B3000762F05C0662371F096E8862F70E060E09E
:100B40002AF09A95660F771F881FDAF7880F969517
:100B5000879597F9089588D018F011F08CD038F463
:100B600080C0C4C0E92F9FD0B0F35523C9F3E7FB81
:100B70006217730784079507A8F199F3E92FFF27F8
:100B800088232AF03197660F771F881FDAF7952F91
:100B90005527442332F091505040220F331F441FF9
:100BA000D2F7BB27E91BF50B621B730B840BB10952
:100BB000C1F222F4620F731F841FB11D31972AF016
:100BC000660F771F881FBB1FEFCF915050405AF020
:100BD00041F0882332F0660F771F881F91505040F4
:100BE000C1F7939530C08695779567959F5FD9F744
:100BF000F8CF990F0008550FAA0BE0E8FEEF161684
:100C00001706E807F907C0F012161306E407F50700
:100C100098F0621B730B840B950B39F40A2661F074
:100C2000232B242B252B21F408950A2609F4A14017
:100C3000A6958FEF811D811D089597F99F6780E824
:100C400070E060E008959F3F31F0915020F4879567
:100C500077956795B795880F911D9695879597F924
:100C600008959FEF80EC089500240A941616170645
:100C700018060906089500240A941216130614068D
:100C800005060895092E0394000C11F4882352F0F0
:100C9000BB0F40F4BF2B11F460FF04C06F5F7F4FA8
:100CA0008F4F9F4F089557FD9058440F551F59F08F
:100CB0005F3F71F04795880F97FB991F61F09F3F49
:100CC00079F087950895121613061406551FF2CF72
:100CD0004695F1DF08C0161617061806991FF1CFC2
:100CE00086957105610508940895E894BB276627E9
:100CF0007727CB0197F90895FA01EE0FFF1F309681
:100D00002105310599F16115710561F48038BFE362
:100D10009B0749F168949038810561F08038BFEFF6
:100D20009B0741F0992342F5FF3FE105310521057D
:100D300011F1E8940894E795D901AA2329F4AB2F7F
:100D4000BE2FF85FD0F310C0FF5F70F4A695E0F7F8
:100D5000F73950F019F0FF3A38F49F779F930CD091
:100D60000F9007FC905808953EF07BCF60E070E054
:100D700080E89FE308954FE79F775F934F933F93FA
:100D80002F939ED02F913F914F915F910CD105C031
:100D900019F40EF052CFA9CF64CF8DDFC8F3963887
:100DA000C0F707F80F92E8942BE33AEA48EB5FE7C5
:100DB00008D10F920F920F924DB75EB70F92C0D02D
:100DC000E6E1F1E016D04F915F91EF91FF91E5954B
:100DD000EE1FFF1F49F0FE57E0684427EE0F441F47
:100DE000FA95E1F74195550B32D00F9007FE26C0DA
:100DF0000895DF93CF931F930F93FF92EF92DF92AB
:100E00007B018C01689405C0DA2EEF01D8D0FE0179
:100E1000E894A5912591359145915591AEF3EF0157
:100E2000D5DDFE019701A801DA9479F7DF90EF9004
:100E3000FF900F911F91CF91DF9108959B01AC011D
:100E400060E070E080E89FE311C1F7CEFCCE33DFB5
:100E5000E8F39923D9F3940F511DBBF391505040FF
:100E600094F059F0882332F0660F771F881F915055
:100E70005040C1F79E3F510544F7880F911D96954C
:100E8000879597F908955F3FACF0983E9CF0BB279B
:100E9000869577956795B79508F4B1609395C1F7F6
:100EA000BB0F58F711F460FFE8CF6F5F7F4F8F4F94
:100EB0009F4FE3CF1BCF0EF0C6CED3CE6894BDCEEE
:100EC000FADEC8F39923D1F3C6F3DF93CF931F93D0
:100ED0000F93FF92C92FDD2788232AF02197660FF1
:100EE000771F881FDAF720E030E040E85FEB9FE3F0
:100EF000883920F0803E30F021968F7756DDEEE382
:100F0000F1E003C052DDEBE6F1E073DF8B01BE01DF
:100F1000EC01FB2E6F5771097595771F880B990BA4
:100F2000DFDD28E132E741E35FE349D0AF2D9801EF
:100F3000AE01FF900F911F91CF91DF9147DDA2CEBF
:100F4000FA01DC01AA0FBB1F9B01AC01BF5728F4BB
:100F500022273327442750781FC0B75188F4AB2F7E
:100F60000024469537952795011CA395D2F30020C0
:100F700069F0220F331F441FB395DAF30DD014CD5F
:100F800061307105A0E88A07B94630F49B01AC01D5
:100F90006627772788279078309621F02083318341
:100FA0004283538308950BD06DCE5EDE28F063DE5E
:100FB00018F0952309F041CE54CE112497CE73DE5C
:100FC000A0F3959FD1F3950F50E0551F629FF0015C
:100FD000729FBB27F00DB11D639FAA27F00DB11DB5
:100FE000AA1F649F6627B00DA11D661F829F22273E
:100FF000B00DA11D621F739FB00DA11D621F839FC5
:10100000A00D611D221F749F3327A00D611D231F9A
:10101000849F600D211D822F762F6A2F11249F57E8
:1010200050408AF0E1F088234AF0EE0FFF1FBB1F0B
:10103000661F771F881F91505040A9F79E3F5105AA
:1010400070F0FBCD53CE5F3FECF3983EDCF386951A
:1010500077956795B795F795E7959F5FC1F7FE2B55
:10106000880F911D9695879597F908950CD00ACE13
:1010700002DE40F0F9DD30F021F45F3F19F0DDCD04
:10108000511134CEEECD0FDE98F39923C9F35523D9
:10109000B1F3951B550BBB27AA276217730784076B
:1010A00038F09F5F5F4F220F331F441FAA1FA9F321
:1010B00033D00E2E3AF0E0E830D091505040E69513
:1010C000001CCAF729D0FE2F27D0660F771F881F74
:1010D000BB1F261737074807AB07B0E809F0BB0B63
:1010E000802DBF01FF2793585F4F2AF09E3F510587
:1010F00068F0A3CDFBCD5F3FECF3983EDCF3869523
:1011000077956795B795F7959F5FC9F7880F911DFC
:101110009695879597F90895E1E0660F771F881FE8
:10112000BB1F621773078407BA0720F0621B730B9B
:10113000840BBA0BEE1F88F7E0950895A1E21A2EF2
:10114000AA1BBB1BFD010DC0AA1FBB1FEE1FFF1F6B
:10115000A217B307E407F50720F0A21BB30BE40BBB
:10116000F50B661F771F881F991F1A9469F7609502
:101170007095809590959B01AC01BD01CF010895BC
:10118000EE0FFF1F0024001C0BBE0790F691E02D10
:101190000994FB01DC010D900020E9F71197019003
:0C11A0000D920020E1F70895F894FFCFB5
:1011AC000901000000440139012E01456E6372797A
:1011BC00707465642056616C75653A20004D6573DA
:0E11CC00736167653A0074657374696E67003D
:00000001FF
