S01300005472616E736D69747465722E7372656374
S11300008AC00000A5C00000A3C00000A1C0000079
S11300109FC000009DC000009BC0000099C000006C
S113002097C0000095C0000093C0000091C000007C
S11300308FC0000042C100008BC0000089C00000D6
S113004087C0000085C0000083C0000081C000009C
S11300507FC000007DC000007BC0000079C00000AC
S113006077C0000075C0000073C0000071C00000BC
S11300706FC000006DC000006BC0000069C00000CC
S113008067C0000065C0000063C000000002950264
S113009095029502950295029502950295029502A4
S11300A09502950295029502950295029502950294
S11300B09502950295029502950295029502950284
S11300C09502950295029502950295029502950274
S11300D095028C029502950295029502950295026D
S11300E083029502950295029502950205020E027D
S11300F017022002290232023B0244024D02560238
S113010095029502950295029502950295025F0269
S1130110680271027A0211241FBECFEFD0E4DEBF61
S1130120CDBF11E0A0E0B1E0E0E2F7E000E00BBFFA
S113013002C007900D92AE30B107D9F721E0AEE0CE
S1130140B1E001C01D92AB32B207E1F7FDD1E6C2C6
S113015057CF181619065CF0089500002150310994
S1130160E1F74F5F5F4F8417950719F4089540E056
S113017050E027E033E0F1CF10988BB9119A0000DA
S1130180119882E090E0E5CF089581E0F5CF0895DD
S1130190813118F48158F0CF08958155EDCF089539
S11301A084E690E0D6DF88E3E7DF86E0E5DF8FE0F2
S11301B0E3DF81E0E1DF8AE090E0CBCF0895109A9D
S11301C08BB9119A0000119881E090E0C2CF089594
S11301D00F931F93CF93DF93182FEB01D6DF812F5B
S11301E0D7DF8881882351F001E0010F812FD0DF10
S11301F08991E5DF102F88818111F6CFDF91CF91AE
S11302001F910F910895809124018823F1F080912A
S11302100001813178F40000BBDF80912501811158
S1130220CEDF809100018F5F809300011092240142
S113023000000BC089E080930001AADF80912501B2
S11302408111BDDF10922401000081E090E0089547
S11302506093010170930201809303019093040160
S113026060932601709327018093280190932901BC
S113027008958BE0809381008DE790E0909389004E
S11302808093880082E080936F0010928500109222
S113029084008091010190910201A0910301B09129
S11302A004018093260190932701A0932801B09321
S11302B029018FB780688FBF08951F920F920FB6E0
S11302C00F9211248F939F93AF93BF938091260134
S11302D090912701A0912801B09129010197A109CA
S11302E0B1098093260190932701A0932801B0932C
S11302F02901892B8A2B8B2B99F481E080932A0185
S11303008091010190910201A0910301B091040137
S11303108093260190932701A0932801B09329018B
S1130320BF91AF919F918F910F900FBE0F901F902F
S113033018958FEE88B90000309B29C0319B29C0E5
S1130340329B29C0339B29C08FED88B90000309BB4
S113035026C0319B26C0329B26C0339B26C08FEB20
S113036088B90000309B23C0319B23C0329B23C03B
S1130370339B23C08FE788B90000309B20C0319B9A
S113038020C0329B20C0339B20C080E0089581E3CD
S1130390089584E3089587E308958AE2089582E343
S11303A0089585E3089588E3089580E3089583E339
S11303B0089586E3089589E3089583E2089581E426
S11303C0089582E4089583E4089584E40895CF931E
S11303D0DF93EC01AEDFC130D10519F0229721F093
S11303E0AAC0811104C0ACC0882309F4A7C090E05E
S11303F08534910508F099C0FC01EA5BFF4F85C183
S113040010922401C2E0D0E09BC080E380932501D8
S113041081E080932401C2E0D0E092C081E3809324
S1130420250181E080932401C2E0D0E089C082E309
S11304308093250181E080932401C2E0D0E080C054
S113044083E38093250181E080932401C2E0D0E01E
S113045077C084E38093250181E080932401C2E086
S1130460D0E06EC085E38093250181E08093240170
S1130470C2E0D0E065C086E38093250181E08093EB
S11304802401C2E0D0E05CC087E38093250181E0D1
S113049080932401C2E0D0E053C088E38093250117
S11304A081E080932401C2E0D0E04AC089E38093D4
S11304B0250181E080932401C2E0D0E041C081E4C1
S11304C08093250181E080932401C2E0D0E038C00C
S11304D082E48093250181E080932401C2E0D0E08E
S11304E02FC083E48093250181E080932401C2E03E
S11304F0D0E026C084E48093250181E08093240128
S1130500C2E0D0E01DC08AE28093250181E080939F
S11305102401C2E0D0E014C083E28093250181E08D
S113052080932401C2E0D0E00BC080E280932501D7
S1130530C2E0D0E005C0C1E0D0E002C0C1E0D0E03C
S1130540CE01DF91CF910895CF93DF9300D000D0F7
S1130550CDB7DEB78FEF81B912B890EF97B99FE0AE
S113056098B98AB91BB80F2EF4EFEF2EF02DFF24A3
S1130570F39400E010E052E340E030E020E004C0F7
S1130580E62EF72E082F192F652F742F832F922F05
S11305902E2D3F2D402F512F96D05E2D4F2D302FD5
S11305A0212F611571058105910551F762E370E012
S11305B080E090E02E2D3F2D402F512F84D0190143
S11305C02A0164EF71E080E090E02E2D3F2D402F52
S11305D0512F79D049015A01E9E1F1E0FA83E98325
S11305E00F2EFEE0CF2EF1E0DF2EF02DDC82CB8249
S11305F077247A94708221823282438254822582C3
S113060036824782508687EE91E092878187C8DDE3
S1130610D6017C92F60181829282A382B4821596DD
S11306208D929D92AD92BC92189783E091E01A96B8
S11306309C938E9319976E2D7F2D802F912F08DE1A
S113064018DE65E071E081E0C3DD7E01B5E0EB0E0C
S1130650F11CFE0131966F01D6010D911D916D01C2
S1130660F801458156816781708581819281A381DA
S1130670B481481759076A077B0779F4808101849C
S1130680F285E02D082E000C990B0995D8018C9366
S1130690F8011582168217821086F80185819681E9
S11306A0A781B0850196A11DB11D85839683A7837B
S11306B0B087CE14DF0481F680912A018823E1F308
S11306C010922A01C6CFA1E21A2EAA1BBB1BFD0160
S11306D00DC0AA1FBB1FEE1FFF1FA217B307E4071D
S11306E0F50720F0A21BB30BE40BF50B661F771F75
S11306F0881F991F1A9469F7609570958095909555
S11307009B01AC01BD01CF010895EE0FFF1F002432
S1130710001C0BBE0790F691E02D0994F894FFCFCE
S111072009010000004D6573736167653A00BE
S9030000FC
