S01300005472616E736D69747465722E7372656374
S1130000E3C00000FFC00000FDC00000FBC0000012
S1130010F9C00000F7C00000F5C00000F3C0000004
S1130020F1C00000EFC00000EDC00000EBC0000014
S1130030E9C00000BBC10000E5C00000E3C000004F
S1130040E1C00000DFC00000DDC00000DBC0000034
S1130050D9C00000D7C00000D5C00000D3C0000044
S1130060D1C00000CFC00000CDC00000CBC0000054
S1130070C9C00000C7C00000C5C00000C3C0000064
S1130080C1C00000BFC00000BDC0000093029802C0
S113009098029802980298029802980278039003B2
S11300A0A8039802A102CB02FF022A034503BA0364
S11300B0C4034B03600378039003A8035104E404CE
S11300C0E404E404E404E404E404E404E404E404EC
S11300D0E404E404E404E404E404E404E404E404DC
S11300E0E404E404E404E404E404E404E404E404CC
S11300F0E404E404E404E404E404E404E404E404BC
S1130100E404DC04E404E404E404E404E404E404B3
S1130110D404E404E404E404E404E40456045F04BE
S1130120680471047A0483048C0495049E04A7046F
S1130130E404E404E404E404E404E404E404B004AF
S1130140B904C204CB0407634236B79BD8A71A3953
S1130150685618AEBAAB558C1D3CB7CC5763BD6D11
S1130160EDFD753EF6177231BF000000803F0800B8
S11301700000BE922449123EABAAAA2ABECDCCCC22
S11301804C3E00000080BEABAAAAAA3E00000000BC
S1130190BF000000803F0000000000084178D3BB8E
S11301A04387D1133D190E3CC3BD4282AD2B3E683B
S11301B0EC8276BED98FE1A93E4C80EFFFBE01C42C
S11301C0FF7F3F000000000011241FBECFEFD0E4EA
S11301D0DEBFCDBF11E0A0E0B1E0E4EBF3E100E06D
S11301E00BBF02C007900D92A83BB107D9F721E0DD
S11301F0A8EBB1E001C01D92A53EB207E1F7F3D32D
S11302000C94D809FDCE181619065CF00895000068
S113021021503109E1F74F5F5F4F8417950719F4B7
S1130220089540E050E027E033E0F1CF10988BB917
S1130230119A0000119882E090E0E5CF089581E0E2
S1130240F5CF0895813118F48158F0CF0895815580
S1130250EDCF089584E690E0D6DF88E3E7DF86E01B
S1130260E5DF8FE0E3DF81E0E1DF8AE090E0CBCF00
S11302700895109A8BB9119A0000119881E090E0CA
S1130280C2CF08950F931F93CF93DF93182FEB01E1
S1130290D6DF812FD7DF8881882351F001E0010F59
S11302A0812FD0DF8991E5DF102F88818111F6CF6E
S11302B0DF91CF911F910F9108951F93CF93DF93F7
S11302C0EC01009741F082309105E9F0833091050B
S11302D039F1019789F567E271E081E0D3DF80911C
S11302E00001882371F06DE271E081E0CBDF8FEFD4
S11302F085B980910001815080930001C1E0D0E074
S11303001BC0C1E0D0E06EE371E081E0BBDF83E0BD
S113031085B965E471E081E0B5DF88E085B90CC09A
S11303206CE471E081E0AEDF1FEF15B96CE471E0BD
S113033081E0A8DF15B915B8CE01DF91CF911F91E7
S1130340089560931D0170931E0180931F01909383
S113035020016093E0017093E1018093E2019093A6
S1130360E30108958BE0809381008DE790E0909302
S113037089008093880082E080936F00109285004A
S11303801092840080911D0190911E01A0911F0183
S1130390B09120018093E0019093E101A093E201E8
S11303A0B093E3018FB780688FBF08951F920F92B7
S11303B00FB60F9211248F939F93AF93BF938091A5
S11303C0E0019091E101A091E201B091E301019774
S11303D0A109B1098093E0019093E101A093E201A6
S11303E0B093E301892B8A2B8B2B99F481E08093C2
S11303F0E40180911D0190911E01A0911F01B09113
S113040020018093E0019093E101A093E201B09375
S1130410E301BF91AF919F918F910F900FBE0F9009
S11304201F9018956F927F928F929F92AF92BF9276
S1130430CF92DF92EF92FF920F931F93CF93DF93AC
S1130440EC01812C912C54016894B6F80F2EFCE039
S11304506F2EF02D712C00E010E0C501B40121D401
S1130460562F472F382F292FC62CD72CE02EF12EAC
S113047002C06B017C01652F742F832F922FA7017B
S113048096016BD75C2D4D2D3E2D2F2D61157105D9
S11304908105910571F7CA94CD28CE28CF2881F023
S11304A020E030E040E85FE3C501B4018DD34B01A7
S11304B05C0120E030E040E451E4EAD388236CF2AC
S11304C0BE01DD0F880B990B1AD4A501940123D525
S11304D020E030E048EA51E454D4DED3CB01DF918C
S11304E0CF911F910F91FF90EF90DF90CF90BF902D
S11304F0AF909F908F907F906F9008950F931F936C
S1130500CF93DF93CDB7DEB72D970FB6F894DEBF48
S11305100FBECDBF8C01FC013197EC30F10588F49E
S1130520EA5BFF4F3CC780911C018B30A0F509C0EA
S1130530FC013197EC30F10508F040C1EE5AFF4F51
S11305402EC71092D9018091DE01882309F421C1BC
S113055080911C018F5F80931C018B3008F01CC1BB
S1130560000070DE8091DE01813079F48091DF013A
S113057080DE8091DC01E82FF0E0E352FE4F9091A1
S1130580DF0190838F5F8093DC011092DE01000015
S113059001E010E013C180B1809584708093DB0189
S11305A080B1809588708093DA018DE0EAEAF1E009
S11305B0DE01119601900D928A95E1F7BE016F5FFD
S11305C07F4F81E15FDE8091DB01882309F4F0C075
S11305D08091DA018111E3C062E071E081E052DED2
S11305E003E010E0EBC088E080931C011092DC0172
S11305F06AE571E081E046DE01E010E0DFC080B131
S1130600809584708093DB0180B18095887080939D
S1130610DA018DED91E006DF8093E70162E071E09D
S113062081E030DE80B1809584708093DB0190B1ED
S1130630909598709093DA01882321F0992309F416
S1130640B1C0BCC0992309F4B9C01092DE0101E025
S113065010E0B4C080B1809584708093DB0190B1C8
S1130660909598709093DA01811106C0992309F44A
S1130670A5C006E010E0A2C09111A0C063E671E03D
S113068081E000DE08E010E099C080B180958470BC
S11306908093DB0193C080910101811106C081E048
S11306A08093010109E010E089C060E771E081E016
S11306B0E9DD8FEF85B980910101815080930101BB
S11306C080910101811106C081E0809301010AE05B
S11306D010E074C068E771E081E0D4DD81E485B99D
S11306E08091010181508093010109E010E066C00E
S11306F080910101811106C081E0809301010BE02A
S113070010E05CC06FE771E081E0BCDD82E485B994
S1130710809101018150809301010AE010E04EC0F4
S113072080910101811106C081E0809301010CE0F8
S113073010E044C066E871E081E0A4DD83E485B99B
S1130740809101018150809301010BE010E036C0DB
S113075080910101882349F16DE871E081E092DD27
S11307608FEF85B9809101018150809301010CE0E4
S113077010E024C06AE971E081E084DD1092DD01BB
S113078015B801E010E01AC061EA71E081E07ADD99
S113079015C001E010E012C002E010E00FC002E05A
S11307A010E00CC004E010E009C007E010E006C04F
S11307B08091DA01811117CF02E010E0C8012D9673
S11307C00FB6F894DEBF0FBECDBFDF91CF911F915E
S11307D00F9108958FEE88B90000309B29C0319B9A
S11307E029C0329B29C0339B29C08FED88B90000F2
S11307F0309B26C0319B26C0329B26C0339B26C02B
S11308008FEB88B90000309B23C0319B23C0329BFF
S113081023C0339B23C08FE788B90000309B20C0DE
S1130820319B20C0329B20C0339B20C080E00895C0
S113083081E3089584E3089587E308958AE208959F
S113084082E3089585E3089588E3089580E3089595
S113085083E3089586E3089589E3089583E2089580
S113086081E4089582E4089583E4089584E4089576
S1130870CF93DF93EC01AEDFC130D10519F022979D
S113088021F0A8C0811104C0AAC0882309F4A5C01E
S113089090E08534910508F097C0FC01E25AFF4FBF
S11308A07EC51092DE01C2E0D0E099C080E380935F
S11308B0DF0181E08093DE01C2E0D0E090C081E3FB
S11308C08093DF0181E08093DE01C2E0D0E087C045
S11308D082E38093DF0181E08093DE01C2E0D0E017
S11308E07EC083E38093DF0181E08093DE01C2E078
S11308F0D0E075C084E38093DF0181E08093DE0162
S1130900C2E0D0E06CC085E38093DF0181E0809396
S1130910DE01C2E0D0E063C086E38093DF0181E0C2
S11309208093DE01C2E0D0E05AC087E38093DF0108
S113093081E08093DE01C2E0D0E051C088E380937F
S1130940DF0181E08093DE01C2E0D0E048C089E3AA
S11309508093DF0181E08093DE01C2E0D0E03FC0FC
S113096081E48093DF0181E08093DE01C2E0D0E086
S113097036C082E48093DF0181E08093DE01C2E02F
S1130980D0E02DC083E48093DF0181E08093DE0119
S1130990C2E0D0E024C084E48093DF0181E080934E
S11309A0DE01C2E0D0E01BC08AE28093DF01109236
S11309B0DE01C2E0D0E013C083E28093DF01109235
S11309C0DE01C2E0D0E00BC080E28093DF01C2E030
S11309D0D0E005C0C1E0D0E002C0C1E0D0E0CE016B
S11309E0DF91CF910895CF93DF93CDB7DEB76397AF
S11309F00FB6F894DEBF0FBECDBF8FEF81B99FE372
S1130A0092B990EF97B99FE098B98AB91BB884B9A5
S1130A1015B80F2EF0E9EF2EF02DFF24F39400E02B
S1130A2010E052E340E030E020E004C0E62EF72E70
S1130A30082F192F652F742F832F922F2E2D3F2DC2
S1130A40402F512F8AD45E2D4F2D302F212F611529
S1130A5071058105910551F764E670E080E090E04E
S1130A602E2D3F2D402F512F78D4288B398B4A8B34
S1130A705B8B62E370E080E090E02E2D3F2D402FF1
S1130A80512F6BD429013A0160E971E080E090E0D4
S1130A902E2D3F2D402F512F60D449015A0186E05D
S1130AA0E1E2F1E0DE01119601900D928A95E1F701
S1130AB0EEECF1E0DD24DA94D08288899989AA8960
S1130AC0BB8981839283A383B48385839683A7831D
S1130AD0B08788E394E092878187BCDBE3ECF1E0A4
S1130AE0D0824182528263827482458256826782B6
S1130AF070868EE792E092878187E8EBF1E0D082FE
S1130B0081829282A382B48285829682A782B086F1
S1130B108DE591E0928781876E2D7F2D802F912F17
S1130B2010DC20DC89E0EAE5F1E0DE0117960190B3
S1130B300D928A95E1F7BE01695F7F4F81E0A2DBE8
S1130B407E0197E0E90EF11CDE0111965D01F501CD
S1130B50019111915F01D80115964D915D916D91AF
S1130B607C91189711968D919D910D90BC91A02D1B
S1130B70481759076A077B0781F4F80180810184CB
S1130B80F285E02D082E000C990B0995D8018C9361
S1130B90F8011582168217821086F80185819681E4
S1130BA0A781B0850196A11DB11D85839683A78376
S1130BB0B087AE14BF0459F68091E4018823E1F3B1
S1130BC01092E401C1CF5058BB27AA270ED069C1A7
S1130BD05AD130F05FD120F031F49F3F11F41EF46C
S1130BE04FC10EF4E095E7FB37C1E92F6BD180F3D9
S1130BF0BA17620773078407950718F071F49EF516
S1130C0083C10EF4E0950B2EBA2FA02D0B01B90170
S1130C1090010C01CA01A0011124FF27591B99F06E
S1130C20593F50F4503E68F11A16F040A22F232F7A
S1130C30342F4427585FF3CF469537952795A795CA
S1130C40F0405395C9F77EF41F16BA0B620B730B71
S1130C50840BBAF09150A1F0FF0FBB1F661F771FE2
S1130C60881FC2F70EC0BA0F621F731F841F48F497
S1130C70879577956795B795F7959E3F08F0B3CF1D
S1130C809395880F08F09927EE0F97958795089507
S1130C90BFD008F481E0089504D06894B11135C13F
S1130CA0089518D188F09F5790F0B92F9927B7511C
S1130CB0A0F0D1F0660F771F881F991F1AF0BA951C
S1130CC0C9F712C0B13081F01FD1B1E008951CC141
S1130CD0672F782F8827B85F39F0B93FCCF3869512
S1130CE077956795B395D9F73EF49095809570956F
S1130CF061957F4F8F4F9F4F0895E89409C097FBEC
S1130D003EF490958095709561957F4F8F4F9F4FDE
S1130D109923A9F0F92F96E9BB279395F695879522
S1130D2077956795B795F111F8CFFAF4BB0F11F4E5
S1130D3060FF1BC06F5F7F4F8F4F9F4F16C088238C
S1130D4011F096E911C0772321F09EE8872F762FC2
S1130D5005C0662371F096E8862F70E060E02AF003
S1130D609A95660F771F881FDAF7880F96958795EF
S1130D7097F9089588D018F011F08CD038F480C019
S1130D80C4C0E92F9FD0B0F35523C9F3E7FB621722
S1130D90730784079507A8F199F3E92FFF278823A0
S1130DA02AF03197660F771F881FDAF7952F55279A
S1130DB0442332F091505040220F331F441FD2F786
S1130DC0BB27E91BF50B621B730B840BB109C1F242
S1130DD022F4620F731F841FB11D31972AF0660F2E
S1130DE0771F881FBB1FEFCF915050405AF041F03E
S1130DF0882332F0660F771F881F91505040C1F747
S1130E00939530C08695779567959F5FD9F7F8CF0E
S1130E10990F0008550FAA0BE0E8FEEF1616170607
S1130E20E807F907C0F012161306E407F50798F06F
S1130E30621B730B840B950B39F40A2661F0232B88
S1130E40242B252B21F408950A2609F4A140A69504
S1130E508FEF811D811D089597F99F6780E870E0E9
S1130E6060E008959F3F31F0915020F48795779585
S1130E706795B795880F911D9695879597F908956D
S1130E809FEF80EC089500240A941616170618069E
S1130E900906089500240A9412161306140605067A
S1130EA00895092E0394000C11F4882352F0BB0F0B
S1130EB040F4BF2B11F460FF04C06F5F7F4F8F4F6E
S1130EC09F4F089557FD9058440F551F59F05F3FA9
S1130ED071F04795880F97FB991F61F09F3F79F058
S1130EE087950895121613061406551FF2CF4695DA
S1130EF0F1DF08C0161617061806991FF1CF86955C
S1130F007105610508940895E894BB27662777273F
S1130F10CB0197F90895FA01EE0FFF1F30962105D2
S1130F20310599F16115710561F48038BFE39B07C0
S1130F3049F168949038810561F08038BFEF9B07D0
S1130F4041F0992342F5FF3FE1053105210511F1F7
S1130F50E8940894E795D901AA2329F4AB2FBE2F6E
S1130F60F85FD0F310C0FF5F70F4A695E0F7F7398F
S1130F7050F019F0FF3A38F49F779F930CD00F90FC
S1130F8007FC905808953EF07BCF60E070E080E865
S1130F909FE308954FE79F775F934F933F932F937A
S1130FA09ED02F913F914F915F910CD105C019F4C0
S1130FB00EF052CFA9CF64CF8DDFC8F39638C0F7B7
S1130FC007F80F92E8942BE33AEA48EB5FE708D17D
S1130FD00F920F920F924DB75EB70F92C0D0E6E416
S1130FE0F1E016D04F915F91EF91FF91E595EE1FDF
S1130FF0FF1F49F0FE57E0684427EE0F441FFA959F
S1131000E1F74195550B32D00F9007FE26C00895A5
S1131010DF93CF931F930F93FF92EF92DF927B01A5
S11310208C01689405C0DA2EEF01D8D0FE01E89453
S1131030A5912591359145915591AEF3EF01D5DDFB
S1131040FE019701A801DA9479F7DF90EF90FF9001
S11310500F911F91CF91DF9108959B01AC0160E046
S113106070E080E89FE311C1F7CEFCCE33DFE8F3F4
S11310709923D9F3940F511DBBF39150504094F030
S113108059F0882332F0660F771F881F9150504023
S1131090C1F79E3F510544F7880F911D969587959A
S11310A097F908955F3FACF0983E9CF0BB27869576
S11310B077956795B79508F4B1609395C1F7BB0F21
S11310C058F711F460FFE8CF6F5F7F4F8F4F9F4F4A
S11310D0E3CF1BCF0EF0C6CED3CE6894BDCEFADEDE
S11310E0C8F39923D1F3C6F3DF93CF931F930F93E0
S11310F0FF92C92FDD2788232AF02197660F771FD7
S1131100881FDAF720E030E040E85FEB9FE388399E
S113111020F0803E30F021968F7756DDEEE6F1E048
S113112003C052DDEBE9F1E073DF8B01BE01EC019A
S1131130FB2E6F5771097595771F880B990BDFDDAF
S113114028E132E741E35FE349D0AF2D9801AE01D6
S1131150FF900F911F91CF91DF9147DDA2CEFA014D
S1131160DC01AA0FBB1F9B01AC01BF5728F4222747
S11311703327442750781FC0B75188F4AB2F00247D
S1131180469537952795011CA395D2F3002069F065
S1131190220F331F441FB395DAF30DD014CD613001
S11311A07105A0E88A07B94630F49B01AC016627B3
S11311B0772788279078309621F0208331834283E3
S11311C0538308950BD06DCE5EDE28F063DE18F0F5
S11311D0952309F041CE54CE112497CE73DEA0F3AB
S11311E0959FD1F3950F50E0551F629FF001729FB8
S11311F0BB27F00DB11D639FAA27F00DB11DAA1FD7
S1131200649F6627B00DA11D661F829F2227B00D23
S1131210A11D621F739FB00DA11D621F839FA00DAE
S1131220611D221F749F3327A00D611D231F849FFE
S1131230600D211D822F762F6A2F11249F57504055
S11312408AF0E1F088234AF0EE0FFF1FBB1F661FF0
S1131250771F881F91505040A9F79E3F510570F0A9
S1131260FBCD53CE5F3FECF3983EDCF38695779548
S11312706795B795F795E7959F5FC1F7FE2B880FA4
S1131280911D9695879597F908950CD00ACE02DEA4
S113129040F0F9DD30F021F45F3F19F0DDCD51115C
S11312A034CEEECD0FDE98F39923C9F35523B1F371
S11312B0951B550BBB27AA2762177307840738F0C1
S11312C09F5F5F4F220F331F441FAA1FA9F333D020
S11312D00E2E3AF0E0E830D091505040E695001CD4
S11312E0CAF729D0FE2F27D0660F771F881FBB1F90
S11312F0261737074807AB07B0E809F0BB0B802D6A
S1131300BF01FF2793585F4F2AF09E3F510568F0B5
S1131310A3CDFBCD5F3FECF3983EDCF38695779548
S11313206795B795F7959F5FC9F7880F911D9695B7
S1131330879597F90895E1E0660F771F881FBB1F13
S1131340621773078407BA0720F0621B730B840BC0
S1131350BA0BEE1F88F7E0950895A1E21A2EAA1B96
S1131360BB1BFD010DC0AA1FBB1FEE1FFF1FA21751
S1131370B307E407F50720F0A21BB30BE40BF50B4E
S1131380661F771F881F991F1A9469F760957095D7
S1131390809590959B01AC01BD01CF010895EE0F9E
S11313A0FF1F0024001C0BBE0790F691E02D09944A
S10713B0F894FFCFDB
S11313B40A02456E63727970746564204D657373B3
S11313C46167653A2053656E643F2000080100009C
S11313D400CE01C301B80148656C6C6F00426567B7
S11313E4696E206F66204D6573736167650053658C
S11313F46E6420330053656E6420380046696E6160
S11314046C204D657373616765004D657373616723
S1131414653A0053656E74204D65737361676500A6
S113142453656E642046460053656E642041005340
S1131434656E6420420053656E6420430053656EF8
S113144464204646204C6173740044656E69656487
S113145400416C6C20446F6E650073203D20412C68
S10B14642072203D204200002B
S9030000FC
